{
  "_format": "hh-sol-artifact-1",
  "contractName": "Exchange",
  "sourceName": "contracts/exchange.sol",
  "abi": [
    {
      "inputs": [
        {
          "internalType": "address",
          "name": "token",
          "type": "address"
        }
      ],
      "stateMutability": "nonpayable",
      "type": "constructor"
    },
    {
      "anonymous": false,
      "inputs": [
        {
          "indexed": false,
          "internalType": "address",
          "name": "sender",
          "type": "address"
        },
        {
          "indexed": false,
          "internalType": "uint256",
          "name": "Totalpurchase",
          "type": "uint256"
        }
      ],
      "name": "Buy",
      "type": "event"
    },
    {
      "anonymous": false,
      "inputs": [
        {
          "indexed": false,
          "internalType": "address",
          "name": "receiver",
          "type": "address"
        },
        {
          "indexed": false,
          "internalType": "address",
          "name": "sender",
          "type": "address"
        },
        {
          "indexed": false,
          "internalType": "uint256",
          "name": "totalsell",
          "type": "uint256"
        }
      ],
      "name": "Sell",
      "type": "event"
    },
    {
      "inputs": [],
      "name": "Apad",
      "outputs": [
        {
          "internalType": "contract IERC20",
          "name": "",
          "type": "address"
        }
      ],
      "stateMutability": "view",
      "type": "function"
    },
    {
      "inputs": [],
      "name": "buy",
      "outputs": [],
      "stateMutability": "payable",
      "type": "function"
    },
    {
      "inputs": [],
      "name": "owner",
      "outputs": [
        {
          "internalType": "address",
          "name": "",
          "type": "address"
        }
      ],
      "stateMutability": "view",
      "type": "function"
    },
    {
      "inputs": [
        {
          "internalType": "uint256",
          "name": "_amount",
          "type": "uint256"
        }
      ],
      "name": "sell",
      "outputs": [],
      "stateMutability": "nonpayable",
      "type": "function"
    }
  ],
  "bytecode": "0x608060405261064060015534801561001657600080fd5b50604051610973380380610973833981810160405281019061003891906100d4565b336000806101000a81548173ffffffffffffffffffffffffffffffffffffffff021916908373ffffffffffffffffffffffffffffffffffffffff16021790555080600260006101000a81548173ffffffffffffffffffffffffffffffffffffffff021916908373ffffffffffffffffffffffffffffffffffffffff16021790555050610146565b6000815190506100ce8161012f565b92915050565b6000602082840312156100e657600080fd5b60006100f4848285016100bf565b91505092915050565b60006101088261010f565b9050919050565b600073ffffffffffffffffffffffffffffffffffffffff82169050919050565b610138816100fd565b811461014357600080fd5b50565b61081e806101556000396000f3fe60806040526004361061003f5760003560e01c80631578f924146100445780638da5cb5b1461006f578063a6f2ae3a1461009a578063e4849b32146100a4575b600080fd5b34801561005057600080fd5b506100596100cd565b604051610066919061064a565b60405180910390f35b34801561007b57600080fd5b506100846100f3565b60405161009191906105cf565b60405180910390f35b6100a2610117565b005b3480156100b057600080fd5b506100cb60048036038101906100c69190610550565b6102e0565b005b600260009054906101000a900473ffffffffffffffffffffffffffffffffffffffff1681565b60008054906101000a900473ffffffffffffffffffffffffffffffffffffffff1681565b600154346101259190610696565b600260009054906101000a900473ffffffffffffffffffffffffffffffffffffffff1673ffffffffffffffffffffffffffffffffffffffff166370a08231306040518263ffffffff1660e01b815260040161018091906105cf565b60206040518083038186803b15801561019857600080fd5b505afa1580156101ac573d6000803e3d6000fd5b505050506040513d601f19601f820116820180604052508101906101d09190610579565b10156101db57600080fd5b600260009054906101000a900473ffffffffffffffffffffffffffffffffffffffff1673ffffffffffffffffffffffffffffffffffffffff1663a9059cbb33600154346102289190610696565b6040518363ffffffff1660e01b8152600401610245929190610621565b602060405180830381600087803b15801561025f57600080fd5b505af1158015610273573d6000803e3d6000fd5b505050506040513d601f19601f820116820180604052508101906102979190610527565b507fe3d4187f6ca4248660cc0ac8b8056515bac4a8132be2eca31d6d0cc170722a7e33600154346102c89190610696565b6040516102d6929190610621565b60405180910390a1565b80600260009054906101000a900473ffffffffffffffffffffffffffffffffffffffff1673ffffffffffffffffffffffffffffffffffffffff166370a08231336040518263ffffffff1660e01b815260040161033c91906105cf565b60206040518083038186803b15801561035457600080fd5b505afa158015610368573d6000803e3d6000fd5b505050506040513d601f19601f8201168201806040525081019061038c9190610579565b101561039757600080fd5b600260009054906101000a900473ffffffffffffffffffffffffffffffffffffffff1673ffffffffffffffffffffffffffffffffffffffff166323b872dd3330846040518463ffffffff1660e01b81526004016103f6939291906105ea565b602060405180830381600087803b15801561041057600080fd5b505af1158015610424573d6000803e3d6000fd5b505050506040513d601f19601f820116820180604052508101906104489190610527565b503373ffffffffffffffffffffffffffffffffffffffff166108fc600154836104719190610665565b9081150290604051600060405180830381858888f1935050505015801561049c573d6000803e3d6000fd5b507fae98fdb7f4bc601d31354dd8c8ba584bf892418c4df67aba01011867bd88ea273330600154846104ce9190610665565b6040516104dd939291906105ea565b60405180910390a150565b6000815190506104f7816107ba565b92915050565b60008135905061050c816107d1565b92915050565b600081519050610521816107d1565b92915050565b60006020828403121561053957600080fd5b6000610547848285016104e8565b91505092915050565b60006020828403121561056257600080fd5b6000610570848285016104fd565b91505092915050565b60006020828403121561058b57600080fd5b600061059984828501610512565b91505092915050565b6105ab816106f0565b82525050565b6105ba81610738565b82525050565b6105c98161072e565b82525050565b60006020820190506105e460008301846105a2565b92915050565b60006060820190506105ff60008301866105a2565b61060c60208301856105a2565b61061960408301846105c0565b949350505050565b600060408201905061063660008301856105a2565b61064360208301846105c0565b9392505050565b600060208201905061065f60008301846105b1565b92915050565b60006106708261072e565b915061067b8361072e565b92508261068b5761068a61078b565b5b828204905092915050565b60006106a18261072e565b91506106ac8361072e565b9250817fffffffffffffffffffffffffffffffffffffffffffffffffffffffffffffffff04831182151516156106e5576106e461075c565b5b828202905092915050565b60006106fb8261070e565b9050919050565b60008115159050919050565b600073ffffffffffffffffffffffffffffffffffffffff82169050919050565b6000819050919050565b60006107438261074a565b9050919050565b60006107558261070e565b9050919050565b7f4e487b7100000000000000000000000000000000000000000000000000000000600052601160045260246000fd5b7f4e487b7100000000000000000000000000000000000000000000000000000000600052601260045260246000fd5b6107c381610702565b81146107ce57600080fd5b50565b6107da8161072e565b81146107e557600080fd5b5056fea2646970667358221220c55814fa4e3df8a4b82b9981650ea9d995775552bfe389f7202586af76d45fbf64736f6c63430008040033",
  "linkReferences": {},
  "deployedLinkReferences": {}
}